:020000040800F2
:10000000D810002045010008833700081126000899
:1000100081370008DD010008BD480008000000002D
:1000200000000000000000000000000091400008F7
:100030009504000800000000853700089340000880
:100040005F0100085F0100085F0100085F01000810
:100050005F0100085F0100085F0100085F01000800
:10006000970400089D040008A30400085F0100082D
:100070005F0100085F0100085F0100085F010008E0
:100080005F0100085F0100085F0100085F010008D0
:10009000B1480008E10100085F0100085F010008A5
:1000A0005F0100085F0100085F0100085F010008B0
:1000B000E9400008F5400008014100085F01000820
:1000C0005F0100085F0100085F0100085F01000890
:1000D0005F010008394400085F0100085F01000863
:1000E0005F0100085F0100085F0100085F01000870
:1000F0005F0100085F0100085F0100085F01000860
:100100005F0100085F0100080D4100085F01000861
:100110005F0100085F01000819410008254100083F
:100120005F0100085F0100085F0100085F0100082F
:10013000DFF80CD000F040F80048004729530008D1
:10014000D81000200648804706480047FEE7FEE733
:10015000FEE7FEE7FEE7FEE7FEE7FEE7FEE7FEE777
:10016000E540000831010008D2B201E000F8012B9F
:10017000491EFBD270470022F6E710B513460A4627
:1001800004461946FFF7F0FF204610BD30B50B4678
:10019000014600202022012409E021FA02F59D42B7
:1001A00005D303FA02F5491B04FA02F52844151E8B
:1001B000A2F10102F1DC30BD064C074D06E0E0681B
:1001C00040F0010394E8070098471034AC42F6D39E
:1001D000FFF7B2FF6070000880700008FEE70000C3
:1001E000014800F055BB00000007002000B58BB0AF
:1001F0000020012105904022CDE9002008910290C5
:1002000004900691079103906946024800F054FA61
:100210000BB000BD0007002000B587B006AB009111
:1002200000210291CDE9031202466946024800F01E
:10023000DFF907B000BD0000000700202DE9FF41F5
:100240006AA16C4CD1E90001CDE90001228A04F1D8
:100250001C0520462978684F00794FF001080026D8
:1002600072B18A074FD521F0020129703E6004F176
:1002700024010A7800F140018A4246D15BA145E0A1
:100280000A071AD4C8B941F00800287057A0594984
:1002900000680390642303221431584802F05EF989
:1002A0006423022203A9554802F058F951496423F6
:1002B00003221731514802F051F94CA04D49006812
:1002C000029020798DF809006423032214314B48F1
:1002D00002F044F96423022202A9484802F03EF9E0
:1002E0004449642303221731444802F037F93E6041
:1002F000434801F0EBFD2179082268464031FFF7C1
:100300008BFFA4F81080BDE8FF813EA1642309683B
:10031000029138498DF8090003221431374802F060
:100320001DF96423022202A9344802F017F9314969
:10033000642303221731314802F010F92079401C60
:10034000C0B22071402823D228A1642309680291F9
:1003500028498DF8090003221431284802F0FEF8DC
:100360006423022202A9254802F0F8F821496423F7
:1003700003221731214802F0F1F83E60204801F0D5
:10038000A5FD2179082268464031FFF745FFBAE70D
:100390001B48D83801F0E3FD194801F0E0FD184989
:1003A0006FF00100D83909680861154909680861CA
:1003B00084F8058029780F4A687821F010011232FC
:1003C00029701670567020F0E0006870A87820F050
:1003D0000800A8706673C80795D004F0B5FC04F057
:1003E00035FE287820F0010028708CE70B00000013
:1003F0000000000000000020240C00402009002024
:1004000000080020FF000000F8B51FA01F4E006884
:100410000090307B8DF8010006F112000025057078
:1004200000F10A0445702078642320F01000207049
:100430006078032220F0C0006070A4F10801144825
:1004400002F08CF8642302226946114802F086F813
:1004500064230322611F0E4802F080F8607820F0C8
:1004600020006070A07820F00800A07075732078DC
:10047000C00707D004F068FC04F0E8FD207820F005
:1004800001002070F8BD00000C00000000000020FA
:10049000200900207047042000F0D6BF082000F09B
:1004A000D3BF102000F0D0BF7FB541A1434BD1E9AD
:1004B0000001CDE900014048414EA0F11C04017843
:1004C00021F002010170E279D006010E04F124004E
:1004D000521C05785D54194445784D7083788B70B3
:1004E000C378CB7003790B7143794B7183798B712E
:1004F000C079C871E27100253560324801F0E6FC30
:100500002179082268464031FFF786FEE079092804
:100510004DD120798DF80C002A4801F020FD2949A1
:10052000A81E096808616423032204F11401264807
:1005300002F014F86423012203A9234802F00EF804
:10054000642348221D49204802F008F8642303224E
:1005500004F117011C4802F001F8207903F008FCAF
:100560002071E571402822D211A16423096802910B
:100570008DF80900032204F11401134801F0EEFF85
:100580006423022202A9104801F0E8FF6423032239
:1005900004F117010C4801F0E1FF3560094801F052
:1005A00095FC2179082268464031FFF735FE7FBD72
:1005B00005000000000000001C0000208800002052
:1005C000240C0040000800202009002090F8202082
:1005D000012A07D0022A05D0416A41F480214162F4
:1005E00001207047006842690A4342610020704759
:1005F000F0B590F820500468A468012D05D0022DB4
:1006000003D0416A41F4802153E014F0406F01D1DE
:10061000E5004BD5C4F30164022C03D9416A41F4CF
:10062000000146E00125A5401D608D684FF4C073B0
:100630009DB1CE6835434E6845EAC605066803EBB2
:100640000417F5514FF4C275076805EB04150E69E0
:100650007E51097D012905D009E00E88CD6845EA63
:100660004655EBE701684E5946F480764E511179B4
:10067000D2F805504FF4C67641EA0525016806EB2D
:1006800004168D511178D2F801204FF4C47541EA57
:100690000221026805EB04155151006803EB0411B7
:1006A000425842F0010242500020F0BD416A41F43C
:1006B000001141620120F0BD10B590F820300268B1
:1006C000012B07D0022B05D0416A41F48021416201
:1006D000012010BDD2F8000240F00100C2F8000273
:1006E000087D00F01F0301209840D2F81C3283439C
:1006F000C2F81C32CB69B3B9D2F80C328343C2F8CA
:100700000C328C894B6864F31F434C6902EBC404C0
:10071000C4F840320C890B6864F31F434C6902EB48
:10072000C404C4F84432CB69012B16D1D2F80C3280
:100730000343C2F80C320C884B6864F31F434C69C6
:1007400002EBC404C4F840320C89CB6864F31F4345
:100750004C6902EBC404C4F844328B69002BD2F814
:1007600004320FD053EA0003C2F804320B69002BA5
:10077000D2F8143208D00343C2F81432096A0129AE
:1007800004D008E08343EFE78343F5E7D2F81C1277
:100790000143C2F81C12D2F8000220F00100C2F896
:1007A0000002002010BD704730B590F82040012CA9
:1007B00005D0022C03D0416A41F480215DE0046839
:1007C000002955D02469A40754D04FF4D874056883
:1007D00004EB01142D5915F00405956005682D5999
:1007E0004ED0ED08556005682C5904F00204D46021
:1007F0004FF4DA74056804EB01142D5905F00F0568
:10080000156105682D59C5F30725956105682C59B3
:10081000240C54614FF4DC72046802EB0112A458FA
:100820001C700468A458240A5C700468A458240C42
:100830009C700468A258120EDA704FF4DE720468DD
:1008400002EB0112A4581C710468A458240A5C71BC
:100850000468A458240C9C710468A258120EDA7122
:10086000006881B1016941F020010161002030BDC3
:10087000E468A8E7416A41F400114162012030BDFB
:100880006D0D1560AFE7C16841F02001C160EDE773
:100890002DE9F05F0546006800244669D0F8049011
:1008A0008768D0F80CB0D0F810A0D0F81880F10705
:1008B00048D0F90714D001218160B80703D5284634
:1008C00000F043FB0CE0780702D54FF4006407E02A
:1008D000380702D54FF4805402E0284600F034FB7C
:1008E000F80516D529684FF480708860B80503D5DF
:1008F000284600F02CFB0CE0780502D544F40054A7
:1009000007E0380502D544F4804402E0284600F0B0
:100910001DFBF80316D529684FF480308860B803B2
:1009200003D5284600F015FB0CE0780302D544F40B
:10093000004407E0380302D544F4803402E028463E
:1009400000F006FB300707D55FEACB6004D52968C5
:10095000102044F40074C86070074FF0080707D5F2
:100960005FEA0B7004D52868C760284600F062F97A
:10097000B00706D52868C068800702D0284600F076
:100980005BF9700607D55FEACA6004D529681020B4
:1009900044F480640861B00607D55FEA0A7004D5A4
:1009A00028680761284600F09FFAF00606D52868F7
:1009B0000069800702D0284600F097FAB00308D5F6
:1009C0005FEAC96005D5296810204860284600F014
:1009D0008DFAF00307D55FEA097004D528684760EF
:1009E000284600F0B7FA300446D55FEA497040D592
:1009F000F00504D55FEAC87001D044F00104B005E9
:100A000004D55FEA887001D544F00204700504D56E
:100A10005FEA487001D544F00404300529D518F088
:100A2000700F26D008F07000402815D006DC102882
:100A300009D020280AD0302816D10AE050280ED03C
:100A4000602811D10EE044F008040DE044F01004D9
:100A50000AE044F0200407E044F0400404E044F0DD
:100A6000800401E044F480742868816921F07001F9
:100A70008161296804204860002C05D0686A204301
:100A800068622846FFF78FFEBDE8F09F70B504004E
:100A900003D094F8200010B104E0012070BD20467E
:100AA00000F082F82068016841F00101016000F067
:100AB000E5FD0546052604E000F0E0FD401B0A28A0
:100AC00011D820684068C007F6D02068016821F07E
:100AD0000201016000F0D2FD05460BE000F0CEFD02
:100AE000401B0A2806D9606A40F40030606284F82E
:100AF0002060D2E7206840688007EFD4207E01287C
:100B0000206801683DD021F080010160607E0128ED
:100B10002068016838D021F040010160A07E0128E2
:100B20002068016833D021F020010160E07E0128B7
:100B3000206801682ED041F010010160207F01285B
:100B40002068016829D021F008010160607F012838
:100B50002068016824D021F004010160D4E9020179
:100B60000843D4E90412114308436168491E08434D
:100B70002168C86100206062012084F82000002004
:100B800070BD41F08001C0E741F04001C5E741F090
:100B90002001CAE721F01001CFE741F00801D4E7B6
:100BA00041F00401D9E7000010B586B000210091A2
:100BB00001910291039100681B49884232D11B4880
:100BC000C16941F00071C161C16901F00071049116
:100BD000816941F0040181618069154C00F00400D5
:100BE00004904FF4006000906946204600F038FC05
:100BF000A014009002200190032003906946204633
:100C000000F02EFC00221146142000F0A3FD142059
:100C100000F092FD00221146152000F09BFD1520EA
:100C200000F08AFD06B010BD0064004000100240D4
:100C300000080140704700002DE9F0479D4C074631
:100C400088B02078002540F002002070A4F10A004E
:100C5000994E4078DFF864A26FF00108A4F11C09F6
:100C60000F2878D2DFE800F077087777771529BA70
:100C7000BFD2EAEF77FCFB008E4B914A083300218C
:100C80003846FFF791FD356008B0BDE8F04702F047
:100C9000B7BF884B8A4A083300213846FFF784FDE6
:100CA0003560864801F05BF9DAF80010C1F8108071
:100CB00008B0BDE8F047FFF7F7BB6B46804A00215C
:100CC0003846FFF771FDA07820F00100A070207871
:100CD000000641D57948483801F041F9774948394B
:100CE0000968C1F81080207820F08000207004F09E
:100CF0001BF80021084604F087F8BDF8002071A118
:100D000002A803F0DDFD02A804F080F90121002013
:100D100004F07AF8BDF802206DA102A803F0D0FD1E
:100D200002A804F073F90221002004F06DF8BDF868
:100D300004206AA102A803F0C3FD02A804F066F92A
:100D400089F80050607820F04000607004F07EF96F
:100D500008B0BDE8F087A3E060784007F8D55748B1
:100D6000903801F0FCF8554990390968C1F81080B5
:100D7000607820F00400607004F059F90021084602
:100D800004F0C0F9BDF800204EA102A803F098FDC0
:100D900002A804F0B7FA0121002004F0B3F9BDF86D
:100DA00002204BA102A803F08BFD02A804F0AAFACE
:100DB0000221002004F0A6F9BDF8042047A102A8F2
:100DC00003F07EFD02A804F09DFA89F801506078D6
:100DD00020F08000607003F0B7FFB9E708B0BDE80D
:100DE000F04702F097BA334B354A083300213846B2
:100DF000FFF7DAFC6078810703D5002005F016FBC9
:100E000004E0C00602D5002005F0ECFC294B2C4A7A
:100E1000083300213846FFF7C7FC6078C10705D0CA
:100E200008B00020BDE8F04704F024BE00078FD5CD
:100E300008B00020BDE8F04705F08AB808B0BDE86A
:100E4000F04703F059BF1B4B1D4A083300213846B9
:100E5000FFF7AAFC3560194801F081F801E019E0BC
:100E600008E0DAF80010C1F8108008B0BDE8F047DB
:100E7000FFF7E4B90F4B124A083300213846FFF759
:100E800093FC35600121A9F8101008B0BDE8F047C7
:100E900002F07ABC356008B0BDE8F04702F040BD12
:100EA00008B03846BDE8F047024B054A0833002138
:100EB000FFF77ABC1C000020240C00400008002032
:100EC00078090020566F6C74616765202564000006
:100ED00043757272656E7420256400004361706111
:100EE000636974792025640070477047704700007B
:100EF00070B5044690F82000012804D0606A40F4E0
:100F00000020606218E0022084F820002068016858
:100F100021F00101016000F0B1FB05460EE000BFC9
:100F200000F0ACFB401B0A2808D9606A40F400308E
:100F30006062052084F82000012070BD20684068B0
:100F4000C007EDD1606270BD704770477047704751
:100F500070477047704710B5040002D0607910B137
:100F600006E0012010BD00202071204600F004F8AA
:100F700001206071002010BD08B500680649884254
:100F800008D10648416941F040014161406900F0E3
:100F90004000009008BD00000030024000100240F8
:100FA00010B590F821100022022905D00421816398
:100FB00080F82020012010BD01680B6823F00E038B
:100FC0000B6001680B6823F001030B6090F8403060
:100FD000C46B012101FA03F3636080F8211080F8EB
:100FE0002020104610BD00002DE9F05F90F8211080
:100FF0000024022903D004218163012485E00168D3
:101000000A6822F00E020A6001680A6822F00102F2
:101010000A603F4E3E4FB215DFF8F4C0DFF8F090A3
:10102000DFF8ECA0DFF8E8B0DFF8E4E00168783F33
:1010300013011502ACF1640CA9F15009AAF13C0AA4
:10104000ABF1280BAEF1140E4FF48018B14227D942
:10105000B9420ED0614512D049451DD0514518D036
:10106000594518D0714501D1424615E0294EB1428B
:1010700001D1012210E0274E1436B14201D11022D5
:101080000AE0244E2836B14206D0224A3C32914230
:1010900001D11A4600E02A461E49091F0A602BE0CA
:1010A000B94213D0614517D0494522D051451DD0D2
:1010B00059451DD0714501D142461AE0B14202D1D5
:1010C0004FF0807215E0134EB14201D1012210E0C1
:1010D000104E1436B14201D110220AE00D4E2836CE
:1010E000B14206D00B4A3C32914201D11A4600E08F
:1010F0002A46074980394A60012180F821100021E1
:1011000080F82010416B01B188472046BDE8F09F70
:10111000800002400804024070B5044600F0AEFAB8
:101120000546601C02D004480078044400F0A6FA8A
:10113000401BA042FAD370BD780000202DE9F05F7B
:10114000A44DDFF888B20026DFF88492A24F4FF05A
:10115000010A05F11C04082809D010287DD00428B4
:101160007CD1BDE8F05F01219C4800F07ABAD846F6
:10117000CBF8246002F0E0FCB872A278D1066ED4FD
:1011800061780B060DD587F809A003F055FE03F032
:10119000CBFD0121042003F037FE91A003F036FFC0
:1011A000A1E0CB0721D00E2808D00F2814D010289A
:1011B0005FD1A87898B1401EA87011E021F04000DE
:1011C000607003F0C1FDA07820F0A000A0706078EE
:1011D000FE7220F0020049E0A878401CECE7AE70F7
:1011E000BDE8F05F002004F045BC0D2843D1787ABB
:1011F000012840D190063ED442F02000A070C9F8EA
:10120000006041F04000607003F0AAFFC8F824605D
:10121000774800F05BFE03F00FFE03F085FD002130
:10122000084603F0F1FD73A003F0F0FE0121002059
:1012300003F0EAFD72A003F0E9FE0221002003F0B2
:10124000E3FD71A003F0E2FE0321002003F0DCFDCA
:1012500070A003F0DBFE207802E010E009E017E068
:1012600020F080002070607820F0020020F0010063
:101270006070BDE8F09FBDE8F05F01F0CBB9C846F3
:10128000C9F8006002F08CFC7870A178CA0613D50A
:1012900003F04AFD0221032003F0B6FD61A003F034
:1012A000B5FE03F0C4FE0221032003F02BFFBDE8CE
:1012B000F05F5CA004F026B86278530618D50122CE
:1012C0001021464800F0D5F987F800A003F032FF5E
:1012D00003F0ADFE03F0ABFE0121042003F012FF8A
:1012E00054A004F00FF8207840F001002070C0E70F
:1012F00013072AD502F054FC78700E2808D00F2866
:101300001AD01028B5D1E878C8B1401EE87017E0AF
:10131000A07840F04000A070607820F080006070FD
:1013200003F094FEE670A07820F04000A070607892
:10133000BE7020F0100042E0E878401CE6E7EE7056
:10134000BDE8F05F002004F003BE0D283AD13878E4
:10135000012837D1880635D441F04000A070CBF881
:10136000246042F08000607003F07CFDC8F80060EB
:101370001F48483000F0AAFD03F0DCFE03F057FEE2
:101380000021084603F0BEFE1AA003F0BBFF0121B6
:10139000002003F0B7FE2AA003F0B4FF02210020D2
:1013A00003F0B0FE18A003F0ADFF0321002003F00E
:1013B000A9FE18A003F0A6FF607820F0140020F02A
:1013C000080055E7BDE8F05F01F06ABC001000407E
:1013D0002414004000000020640900200010014097
:1013E000506C6561736520576169742000000000CE
:1013F00048080020315F53746172742000000000BF
:10140000325F53746F700000335F526573746172A2
:1014100074000000345F5265737461727420436518
:101420006C6C000047726164696E67204D6F646583
:1014300000000000506C656173652057616974009D
:10144000325F53746F702000044910B50A6802427D
:1014500002D00860FFF772FE10BD000014040140C6
:101460002DE9F84FDFF8C891002409F1040A0AF1C8
:10147000040B23460F270BF1040ED1E00125A540F4
:1014800006EA0502AA4276D1DFF8A8C14E68A6EBAB
:101490000C0866452BD00DDC032E34D005DC36B3AA
:1014A000012E19D0022E2FD11BE0112E16D0122E94
:1014B0002AD119E0B8F5881F19D006DCB8F5803FAD
:1014C00015D0B8F5801F1FD111E0B8F5001F0ED060
:1014D000B8F5041F18D10AE0CB6815E0CB681B1DD6
:1014E00012E0CB6808330FE0CB680C330CE08B685C
:1014F0002BB1012B4FF0080303D0456104E0042316
:1015000002E0056100E00023FF2A01D8064601E061
:1015100000F104064FEA840501D9A5F12005D6F8AB
:10152000008007FA05FC28EA0C0803FA05F548EAEA
:101530000508C6F800804D68ED0070D53E4DAE69D7
:1015400046F00106AE61AD6924F0030605F0010521
:1015500000953A4D06EB050CDCF80850A607360F4F
:1015600007FA06F825EA0805DFF8D480404503D1DC
:101570004FF0000825E052E0DFF8C880404502D176
:101580004FF001081DE0DFF8C080404502D14FF068
:10159000020816E0DFF8B480404502D14FF003089E
:1015A0000FE0DFF8AC80404502D14FF0040808E0BE
:1015B000DFF8A080404502D14FF0050801E04FF070
:1015C000060808FA06F848EA0508CCF808804D68CD
:1015D000D9F80060ED034D4601D5164300E096436F
:1015E0002E604D68DAF80060AD03554601D516430C
:1015F00000E096432E604D68DBF80060ED025D462A
:1016000001D5164300E096432E604D68DEF8006079
:10161000AD02754601D5164300E096432E60641C6A
:101620000A681646E2407FF429AFBDE8F88F000053
:1016300000040140000011100010024000000140B1
:1016400000080140000C014000100140001401405E
:1016500000180140001C01408068084000D00120B3
:101660007047C26821EA02030A4043EA024101616D
:1016700070470AB1016170470904FBE701488068BF
:101680007047000078000020024881680278114409
:101690008160704778000020074810B5016841F06C
:1016A00010010160032000F075F8002000F006F83A
:1016B00000F024F8002010BD0020024070B50D4D50
:1016C00004464FF47A712878B1FBF0F00A490968B2
:1016D000B1FBF0F000F0ECFA48B9102C07D2002270
:1016E0002146501E00F036F800206C6070BD0120CD
:1016F00070BD000078000020840000200C4808B570
:10170000816941F001018161816901F0010100916C
:10171000C16941F08051C161C06900F08050009002
:101720000448416821F0E06141F00071416008BD6A
:101730000010024000000140002809DB00F01F02F9
:10174000012191404009800000F1E020C0F8001123
:1017500070470000F0B40E4B1B680C46C3F3022325
:10176000C3F10705042D00D90425191D072901D24D
:10177000002300E0DB1E012606FA05F1491E214088
:1017800099409E40761E16403143F0BC03F0ACB841
:101790000CED00E0064900F0070208684FF6FF0371
:1017A000184040EA0220034A1043086070470000D6
:1017B0000CED00E00000FA052DE9F0470F460500AA
:1017C00061D0434E306800F00700B84209D230685B
:1017D00020F0070038433060306800F00700B8425E
:1017E00051D128683B4C810712D5400703D560686A
:1017F00040F4E06060602878000703D5606840F43A
:10180000605060606068A96820F0F0000843606084
:101810002878C00728D06868012810D021680228DD
:1018200010D0890700292EDA616821F003010143F5
:101830006160FFF723FF804641F288390DE021689F
:101840008903EFE78901EDE7FFF718FFA0EB080137
:10185000494502D90320BDE8F0876068696800F057
:101860000C00B0EB810FEFD1306800F00700B842F8
:101870000BD9306820F0070038433060306800F042
:101880000700B84201D00120E5E72878400705D5D8
:101890006068E96820F4E060084360602878000729
:1018A00006D56068296920F4605040EAC100606094
:1018B00000F038F86168084AC1F30311515CC84070
:1018C0000649086006480068FFF7F8FE0020C2E7F6
:1018D00000200240001002404870000884000020F0
:1018E0007C0000200448054900684968044AC1F3A7
:1018F0000221515CC8407047840000200010024063
:10190000587000080448054900684968044AC1F352
:10191000C221515CC8407047840000200010024082
:101920005870000812A185B00FC98DE80F0014A0EF
:10193000144A006804905168134801F00C03042B0A
:1019400010D0082B0ED1C1F38343C9031DF8030047
:101950000AD5516804AAC1F34041515C0A4A504378
:10196000B0FBF1F005B0704708494843FAE70000C2
:1019700002030405060708090A0B0C0D0E0F1010D0
:10198000010200000010024000127A0000093D0030
:101990002DE9F84F040070D02078C04DC00749D021
:1019A0006868C0F38100012807D06868C0F381002F
:1019B000022809D16868C00306D52868800339D594
:1019C00060680028E7D035E06068B0F5803F0BD054
:1019D00010B1B0F5A02F11D0286820F48030286015
:1019E000286820F4802002E0286840F480302860D5
:1019F000606890B1FFF742FE06460AE0286840F4AE
:101A000080202860F0E700BFFFF738FE801B6428C5
:101A100073D828688003F7D50CE0FFF72FFE064641
:101A200005E000BFFFF72AFE801B6428F0D8286875
:101A30008003F7D420789A4E80074FF001094FF0C9
:101A4000000839D5686810F00C0F07D06868C0F33B
:101A50008100022809D16868C00306D4286880077D
:101A600014D52069012808D110E02069B0B1C6F86A
:101A70000090FFF703FE074605E00AE1FFF7FEFDD1
:101A8000C01B0228C4D828688007F7D52868616978
:101A900020F0F80040EAC10028600DE0C6F80080A0
:101AA000FFF7ECFD074604E0FFF7E8FDC01B022846
:101AB00023D828688007F7D4207800072CD57948E8
:101AC000A169D9B1C0F80090FFF7D8FD074604E03E
:101AD000FFF7D4FDC01B02280FD8686A8007F7D52E
:101AE00071484FF4FA510068B0FBF1F0009000BF6C
:101AF0000098411E0091FAD20EE080E0C0F800800C
:101B0000FFF7BCFD074604E0FFF7B8FDC01B022845
:101B100075D8686A8007F7D42078400760D5E869EF
:101B20000027C00008D4E86940F08050E861E86907
:101B3000012700F0805000905C480168C90513D46B
:101B40000168834641F480710160FFF797FD82468A
:101B500006E000BFFFF792FDA0EB0A0064284ED814
:101B6000DBF80000C005F5D5E06801280AD008B10F
:101B7000052813D0286A20F001002862286A20F086
:101B8000040002E0286A40F001002862E06841F2A7
:101B9000883B98B1FFF772FD82460BE0286A40F05F
:101BA00004002862EEE700BFFFF768FDA0EB0A0122
:101BB00059455AD8286A8007F6D50CE0FFF75EFD34
:101BC000824605E0FFF75AFDA0EB0A0159454CD8C3
:101BD000286A8007F6D41FB1E86920F08050E861D8
:101BE000E06988B36968C1F38101022944D0022801
:101BF000C6F8608004D0FFF741FD044638E034E0C9
:101C0000FFF73CFD074604E0FFF738FDC01B022844
:101C10002BD828688001F7D4206AB0F5803F05D121
:101C20006868A16820F4003008436860D4E90801BE
:101C30000843696821F4741108436860C6F860902D
:101C4000FFF71CFD044606E025E000BFFFF716FD88
:101C5000001B022809D828688001F7D51BE000BFC7
:101C6000FFF70CFD001B022802D90320BDE8F88F06
:101C700028688001F4D40EE00128F7D06868226A51
:101C800000F48031914204D1616A00F470108842FE
:101C900001D00120EAE70020E8E700000010024040
:101CA0000000424280044242840000200070004054
:101CB00010B5401EB0F1807F01D3012010BD4FF060
:101CC000E02460610F21601702F00EFE0020A06189
:101CD00007202061002010BD7047704770B590F854
:101CE0003C20012A2CD0012480F83C40022280F8BC
:101CF0003D2003685A689D6822F070060A683243E6
:101D00005A60104B02689A420ED00F4B9A420BD089
:101D1000B2F1804F08D00D4B9A4205D00C4B9A423D
:101D200002D00C4B9A4204D1496825F08003194334
:101D3000916080F83D40002180F83C10084670BD5D
:101D4000022070BD002C014000340140000400401E
:101D500000080040000C004010B5040003D094F8C7
:101D60003D0010B107E0012010BD002084F83C00C8
:101D7000204600F01FF8022084F83D00211D206855
:101D800002F0D6F9012084F8460084F83E0084F879
:101D90003F0084F8400084F8410084F8420084F851
:101DA000430084F8440084F8450084F83D00002096
:101DB00010BD000008B501683D48B1F1804F11D059
:101DC0003C4A91421DD1C16941F00201C161C06923
:101DD000002200F00200009011461D20FFF7BAFC1F
:101DE0001D2055E0C16941F00101C161C0690022B7
:101DF00000F00100009011461C20FFF7ABFC1C20F6
:101E000046E02D4A91420ED1C16941F00401C16101
:101E1000C069002200F00400009011461E20FFF768
:101E200099FC1E2034E0254A91420ED1C16941F04F
:101E30000801C161C069002200F00800009011464D
:101E40003220FFF787FC322022E01D4A91420ED15A
:101E5000C16941F01001C161C069002200F01000A9
:101E6000009011463620FFF775FC362010E0154A29
:101E7000914211D1C16941F02001C161C0690022C4
:101E800000F02000009011463720FFF763FC372058
:101E9000BDE80840FFF750BC0B4A914207D1816969
:101EA00041F400518161806900F40050009008BD48
:101EB000001002400004004000080040000C0040F8
:101EC00000100040001400400034014090F83D1024
:101ED000012901D001207047022180F83D100168DE
:101EE000CA6842F00102CA6000680E4988420ED0FA
:101EF0000D4988420BD0B0F1804F08D00B49884281
:101F000005D00B49884202D00A49884204D1816831
:101F100001F00701062903D0016841F001010160C9
:101F200000207047002C01400034014000040040B4
:101F300000080040000C004001680A6A41F21113D9
:101F40001A4207D10A6A9B101A4203D10A6822F08A
:101F500001020A60012180F83D10002070470168ED
:101F6000CA6822F00102CA6001680A6A41F21113CC
:101F70001A4207D10A6A9B101A4203D10A6822F05A
:101F800001020A60012180F83D100020704770B501
:101F9000044690F83C00012817D0012584F83C50F5
:101FA000022084F83D002068826822F0770222F443
:101FB0007F4282600868502830D00DDC20284DD048
:101FC00005DC98B310283BD148E0022070BD3028D2
:101FD00044D0402834D139E0602828D0702806D079
:101FE000B0F5805F2CD0B0F5005F29D10AE0CB6856
:101FF000D1E90121206802F0E1F82068816841F010
:10200000770109E0CB68D1E90121206802F0D6F818
:102010002068816841F48041816011E0CA684968A4
:10202000206802F0DDF85021206807E016E0CA6859
:102030004968206802F0E5F86021206802F0C8F8DD
:1020400084F83D50002084F83C0070BDCA6849689F
:10205000206802F0C5F840212068EFE722680146B9
:102060001046EBE7704770B50446006801694FF011
:102070000005C943890715D4C168C943890711D42C
:10208000E91E0161012020772068806980072046D1
:1020900002D0FFF7E7FF04E000F098F8204600F0D8
:1020A00096F8257720680169C943490717D4C168A4
:1020B000C943490713D46FF004010161022020775E
:1020C0002068806910F4407F204602D0FFF7CAFFE5
:1020D00004E000F07BF8204600F079F825772068CE
:1020E0000169C943090716D4C168C943090712D455
:1020F0006FF008010161042020772068C069800723
:10210000204602D0FFF7AEFF04E000F05FF8204663
:1021100000F05DF8257720680169C943C90617D426
:10212000C168C943C90613D46FF0100101610820CA
:1021300020772068C06910F4407F204602D0FFF766
:1021400091FF04E000F042F8204600F040F82577C7
:1021500020680169C943C90708D1C168C943C907D3
:1021600004D1891E0161204600F032F8206801691F
:10217000C943090609D4C168C943090605D46FF0EB
:10218000800101612046FFF7A7FD20680169C9436E
:10219000490609D4C168C943490605D46FF0400116
:1021A0000161204600F05CF820680169C943890696
:1021B0000BD4C168C943890607D46FF020010161BF
:1021C0002046BDE87040FFF788BD70BD704770477E
:1021D0001D4910B50A781D4C42F001020A700368CF
:1021E000A34202D142F020020A70194C02684FF05B
:1021F0008043A24208D1164C0022243422605A6245
:102200000A7842F010020A70124C0268A24203D10E
:102210000A7842F008020A700F4C0268A24203D109
:102220000A7842F004020A700C4C0268A24203D100
:102230000A7842F040020A700068984203D1087898
:1022400040F00200087010BD200000200010004087
:10225000000C004000080040000400400014004052
:102260007047704770470000F8B502680446106870
:10227000D168536910F00F0F4FF0000553D003F0F1
:10228000010601F4907737435FD0C20705D0CA0535
:1022900003D5226C42F001022264420705D5DA0719
:1022A00003D0226C42F002022264820705D5DA07CD
:1022B00003D0226C42F004022264020707D501F029
:1022C0002002324303D0226C42F008022264226CC6
:1022D000002A34D0800604D5880602D5204601F0B5
:1022E000C2FF20684069216CC0F38010090700D448
:1022F00030B3204601F09FFF2068416949061BD595
:10230000416921F040014161A06BA8B15849416386
:10231000A06BFEF769FE002811D0A06B416B01B0E5
:10232000BDE8F040084783060FD58B060DD5204643
:10233000BDE8F84001F097BF2046FFF793FFF8BDD6
:102340002046FFF78FFF2564F8BD266B2023012E62
:1023500052D1C60650D5CE064ED5106850680090B2
:10236000506940062AD5A16B086840680004000C3B
:10237000EAD0A68D8642E7D9E0858869202818D062
:10238000D06820F48070D0602068416921F001019C
:1023900041612068416921F04001416184F83E308B
:1023A00025632068C16821F01001C160A06BFEF7B1
:1023B000F7FDA08DE18D401A81B219E0A08DE18D6D
:1023C000401A81B2E08D0028BED00029BCD0D06870
:1023D00020F49070D0602068426922F001024261CE
:1023E00084F83E3025632068C26822F01002C26083
:1023F0002046FFF736FFF8BD05062BD50D0629D57B
:1024000094F83D002128F6D1A068B0F5805F01D195
:102410002069B0B1206A411C2162216800784860BF
:10242000E08C401E0004000CE084E4D12068C16808
:1024300021F08001C1602068C16841F04001C160A5
:10244000F8BD206A0088C0F308005060206A801C34
:102450002062E5E74006F3D54806F1D5D16820466D
:1024600021F04001D16084F83D3000F0D0F8F8BD93
:102470002742000870B5040004D094F83D00002500
:1024800010B106E0012070BD84F83C50204600F0F9
:1024900023F8242084F83D002068C16821F400510D
:1024A000C160204601F03AFF2068016921F49041A3
:1024B00001612068416921F02A0141612068C168F9
:1024C00041F40051C1602564202084F83D0084F867
:1024D0003E00002070BD000030B585B0002400949F
:1024E0000194029403940068184988422CD118483A
:1024F000816941F480418161816901F480410491E5
:10250000816941F0040181618069124D00F004008D
:1025100004904FF40070009002200190032003907B
:1025200069462846FEF79CFF2815CDE90004694658
:1025300028460294FEF794FF002211462520FFF75B
:1025400009F92520FFF7F8F805B030BD0038014043
:102550000010024000080140704700002DE9F843D8
:10256000044690F83D001F4616460D4620284CD1E3
:10257000C5B1BEB194F83C00012846D0012084F8D2
:102580003C004FF00008C4F84080212084F83D0052
:10259000FFF774F8A6848146E684A068B0F5805FF2
:1025A00003D004E00120BDE8F883206928B12E465D
:1025B0005FF0000584F83C800EE00026FAE78021F9
:1025C000204601F007FFA0B9AEB116F8010B216853
:1025D0004860E08C401EE084E08C4B464FF00002E7
:1025E00000970028EBD14FF04001204601F0F2FEA9
:1025F00030B10320D7E735F8020BC0F30800E6E757
:10260000202084F83D000020CDE70220CBE7704772
:10261000FEE700002DE9FC5FDFF868930025AE1EA1
:1026200099F80A00D84CA9F58E7A4FF001080E28C7
:1026300062D04F46A378BA7AFF7A5FEA836C4FF094
:1026400002014FF0030B4FF0040EA2F101027CD502
:102650005FEA036C7AD5002F73D0012F7AD0022F56
:102660007CD0032F78D1082A76D2714689F80BE006
:1026700000F0CCF989F80B50A07820F08000A07011
:102680005046FFF76CFCDAF800000661A078BFA3A3
:1026900040F00100A07099F80D0099F80E1040016B
:1026A00000EB810099F80F1099F810200844403091
:1026B000C1B2D3E90003CDE900038DF8012008225F
:1026C0006846FDF7A9FD02F02FFB0121022002F070
:1026D0009BFBB0A002F09AFCA07820F00100A07053
:1026E000FA2002F0D0F9607820F04000607002F02B
:1026F000ADFC02F029FBF3E0AA480560AA48FFF709
:102700002EFCA9489030FFF72AFCDAF80000066199
:10271000A54800680661A178207821F0A001A17089
:1027200089F8098020F080006178207089F80B50CA
:1027300021F04300607002F007FBBDE8FC5F02F08F
:1027400085BC022A08D241460BE0CEE00FE001E052
:1027500004E001E0082A04D3BDE8FC9F042AFBD270
:10276000594689F80B10BDE8FC5F00F04FB9864967
:10277000854F4FF6E8588978183741F00101012854
:1027800016D0022849D0032879D00428E4D143F098
:102790008000A07002F0C8FA0021084602F034FB65
:1027A00082A002F033FC89F80B5089F81150D3E76E
:1027B00083A20025D2E90002CDE90002A170785D74
:1027C00011280BD1082205F140016846FDF724FDD0
:1027D00000204146401C80B28842FBD36D1CEDB204
:1027E000402DECD3A07820F00100A070607820F09C
:1027F000400060706C489030FFF7B1FBDAF80000E1
:102800000661A07820F08000A07002F08DFA01210E
:10281000042002F0F9FA6CA059E06FA20025D2E979
:102820000002CDE90002A170785D11280BD10822C9
:1028300005F140016846FDF7EFFC00204146401CD1
:1028400080B28842FBD36D1CEDB2402DECD3A07852
:1028500020F08100A070607820F040006070524845
:102860009030FFF77CFBDAF80000066102F05CFABA
:102870000121042002F0C8FA59A028E0FFE75BA27A
:102880000025D2E90002CDE90002A170785D11288F
:102890000AD1082205F140016846FDF7BDFC002081
:1028A000401C80B24045FBD36D1CEDB2402DEDD3F2
:1028B000A07820F00100A070607820F040006070E7
:1028C00002F032FA0121022002F09EFA49A002F041
:1028D0009DFBFA2002F0D7F802F036FA02F0B6FBC0
:1028E000A07820F02000A07036E799F80930022B7C
:1028F00011D0012B2FD0002BF6D10122D10341485A
:10290000FEF7B7FE99F80900401C89F80900BDE8F8
:10291000FC5F00F0E3B8002F3FF413AF012F3FF44A
:1029200019AF022F09D0032FDED1082ADCD271465D
:1029300089F80BE000F06AF80AE0042AD4D259467C
:1029400089F80BB000F062F899F80C000128CBD997
:1029500089F80B50D6E7032AC6D289F80C006078B4
:1029600040F04000607002F0FBFB99F80900401C49
:1029700089F80900244845620B489030FFF7A6FA11
:10298000C5E70000640900201C00002011000000C1
:102990000000000043656C6C2052657374617274B2
:1029A0006564000024080040B8070020456E746587
:1029B000722043656C6C204E756D6265720000007C
:1029C0000200000000000000556E6974205374611D
:1029D0007274656400000000030000000000000045
:1029E000556E69742053746F700000001000000071
:1029F00000000000556E6974205265737461726442
:102A000065640000001001400010004038B5044625
:102A10000B480D4600F10D03827A417C521ECA54C8
:102A2000427C0221521C4274284602F0EDF92246F3
:102A300004A1684601F044FF684602F0E7FA38BD99
:102A400064090020256400001CB5024648010B0AF9
:102A500000EB830000EB114040301BA3C4B2D3E96C
:102A60000003CDE90003090E8DF80110184900207C
:102A70000870110E012907D0022920D0032902D1A4
:102A8000204602F0F7FF1CBD124908601248FFF70C
:102A90001DFA0F4A06211C32A2F10A031078597060
:102AA00020F0020040F0900010705078214640F075
:102AB0004000507008226846FDF7AEFB1CBD204662
:102AC00003F0B4FC1CBD0000060000000000000084
:102AD0000000002024080040B807002070B5404ED8
:102AE000404C0025707A012815D002283FD00328D9
:102AF00055D002F019F90021084602F085F93AA0F4
:102B000002F084FA0121002002F07EF9BDE8704055
:102B10003BA002F07BBA02F08FF902F005F9002128
:102B2000084602F071F93DA002F070FA0121002080
:102B300002F06AF93BA002F069FA0221002002F0DB
:102B400063F93DA002F062FA0321002002F05CF973
:102B50003DA002F05BFA2178607821F080012170BD
:102B600020F0430060701F481C38057070BD02F0F3
:102B7000DBF80021F572084602F046F97574307BE7
:102B800001280AD033A000BF02F040FA364845625F
:102B9000BDE870403548FFF799B935A0F4E702F079
:102BA000C3F8A078012140F00100A070002002F0DD
:102BB0002BF934A002F02AFA0221002002F024F9B5
:102BC00035A002F023FA064B5C3B53F8650F5968B9
:102BD0001B7ABDE8704063F30702FFF735BF0000C2
:102BE000640900201C00002053797374656D204532
:102BF00072726F7220506C65617365200000000076
:102C000057616974204F6E65204D6F6D656E74203D
:102C1000466F7220526573746172740043686F6FFF
:102C200073650000315F43656C6C20506172616DAB
:102C30006574657200000000325F50726F636573E7
:102C40007320537461746500335F50726F636573F2
:102C500073000000456E74657220426F61726420DB
:102C60004E756D626572000000100040480800203B
:102C7000456E7465722043656C6C204E756D62659F
:102C8000720000005761697420466F7220476574B6
:102C900074696E67204100004461746100000000A7
:102CA0002DE9FC5FDB4C002601276078DA4DA4F1AA
:102CB000D40B6FF0010A0E2864D0A978A4465FEA0D
:102CC00041689CF801109CF802C04FF002034FF0DD
:102CD00003024FF00409A1F1010170D595F80380BA
:102CE0005FEAC8786CD0BCF1000F6CD0BCF1010F6A
:102CF0006DD0BCF1020F6FD0BCF1030F40D1082999
:102D00003ED2494684F8029000F0C6F9A670EE70F3
:102D10005846FFF724F9DBF80010C1F810A0A87896
:102D2000BEA340F00100A87020796179400100EB5A
:102D30008100A179E27908444030C1B2D3E90003AF
:102D4000CDE900038DF8012008226846FDF764FAFA
:102D500002F06DF90121022002F0D4F9B1A002F0D5
:102D6000D1FAA87820F04100A870FA2001F08BFE7B
:102D7000687820F08000687002F068F901F0E4FFE4
:102D8000BDE8FC9FAB480660AB48FFF7E8F8A148F8
:102D9000D438FFF7E4F8A8490968C1F810A0DBF8B7
:102DA0000010C1F810A06878EE70A97820F09C009F
:102DB00021F04001A9702770A67068706DE0E1E015
:102DC00012E000E003E00229DAD2394607E00829E0
:102DD000D6D2194603E0FFE70429D1D21146A170EB
:102DE000BDE8FC5F00F058B98B49DFF82C924FF634
:102DF000E858897809F1180941F00101012812D039
:102E0000022850D003287DD00428B9D1EF7002F0F9
:102E10000EF90021084602F075F988A002F072FA56
:102E2000A6702672ACE78AA20024D2E90002CDE99E
:102E30000002A97019F8040011280AD1082204F12F
:102E400040016846FDF7E8F90020401C80B240458B
:102E5000FBD3641CE4B2402CECD3A87820F0010032
:102E6000A870687820F0800068706A48D438FFF74E
:102E700076F8DBF80010C1F810A002F0D8F80121B4
:102E8000042002F03FF9A87820F04000A87072A05A
:102E900002F038FAFA2001F0F6FD01F055FFBDE826
:102EA000FC5F02F0D3B870A20024D2E90002CDE9A1
:102EB0000002A97019F8040011280AD1082204F1AF
:102EC00040016846FDF7A8F90020401C80B240454B
:102ED000FBD3641CE4B2402CECD3A87820F00100B2
:102EE000A870687820F0800068704A48D438FFF7EE
:102EF00036F8DBF80010C1F810A002F098F80121B4
:102F0000042000E007E002F0FDF8A87820F040007F
:102F1000A87057A02CE059A20024D2E90002CDE904
:102F20000002A97019F8040011280AD1082204F13E
:102F300040016846FDF770F90020401C80B2404512
:102F4000FBD3641CE4B2402CECD3A87820F0010041
:102F5000A870687820F08000687002F068F801219D
:102F6000022002F0CFF8A87820F04000A87045A019
:102F700002F0C8F9FA2001F086FD01F0E5FE02F04A
:102F800065F8FDE694F80080B8F1020F0AD0B8F1B8
:102F9000010F2BD0B8F1000FF3D12770BDE8FC5F13
:102FA00000F0E2B8BCF1000F3FF40DAFBCF1010F2F
:102FB0003FF40DAFBCF1020F0AD0BCF1030FE0D11A
:102FC0000829DED2494684F8029000F065F808E04E
:102FD0000429D6D21146A27000F05EF8E0780128EC
:102FE000CFD9A6702078401C2070D7E70329C8D21B
:102FF000E070687840F08000687001F033FF20785E
:10300000401C2070234806600248D438FEF75EFF5B
:10301000C4E70000640900201C000020110000002B
:103020000000000043656C6C20526573746172741B
:10303000656400002404004070070020456E74653C
:10304000722043656C6C204E756D626572000000E5
:103050000200000000000000556E69742053746186
:1030600072746564000000000300000000000000AE
:10307000556E69742053746F7000000010000000DA
:1030800000000000556E69742052657374617264AB
:10309000656400002414004038B504460B480D4612
:1030A000031D4278017A521ECA54027A0221521C30
:1030B0000272284602F026F8224605A1684601F071
:1030C000FFFB684602F01EF938BD000064090020CD
:1030D000256400001CB5024648010B0A00EB830082
:1030E00000EB114040301BA3C4B2D3E90003CDE98B
:1030F0000003090E8DF80110184900204870110EC8
:10310000012907D0022920D0032902D1204602F04C
:103110001FFF1CBD124908601248FEF7D7FE0F4A78
:1031200006211C32A2F10A031078597020F0020027
:1031300040F0100010705078214640F0840050702C
:1031400008226846FDF768F81CBD204603F04AFBDC
:103150001CBD000006000000000000000000002070
:10316000240400407007002070B53B4E3B4D002406
:103170003078012815D002283BD0032852D001F026
:1031800056FF0021084601F0BDFF35A002F0BAF855
:103190000121002001F0B6FFBDE8704036A002F02A
:1031A000B1B801F0C7FF01F042FF0021084601F06D
:1031B000A9FF38A002F0A6F80121002001F0A2FF2B
:1031C00036A002F09FF80221002001F09BFF38A0FA
:1031D00002F098F80321002001F094FF38A002F0DB
:1031E00091F8687820F09C0068701C481C38447086
:1031F00070BD01F01CFF0021B470084601F082FF91
:103200003472F07801280BD030A000BF02F07AF8B9
:1032100033480460BDE870400F48D438FEF756BE0E
:1032200030A0F3E701F003FFA878012140F001008E
:10323000A870002001F066FF2FA002F063F80221C1
:10324000002001F05FFF31A002F05CF8024A07CADB
:10325000BDE87040FFF73EBF640900201C0000205D
:1032600053797374656D204572726F7220506C656E
:10327000617365200000000057616974204F6E651E
:10328000204D6F6D656E7420466F722052657374A9
:103290006172740043686F6F73650000315F43654E
:1032A0006C6C20506172616D657465720000000085
:1032B000325F50726F63657373205374617465007D
:1032C000335F50726F63657373000000456E746501
:1032D0007220426F617264204E756D6265720000EB
:1032E00024140040456E7465722043656C6C204E5A
:1032F000756D6265720000005761697420466F72D7
:103300002047657474696E672041000044617461F0
:10331000000000002DE9FC412DA12F4ED1E9000154
:103320002E4F00244FF6E855CDE90001305D1128FD
:103330000DD1385D8DF80100082204F14001684686
:10334000FCF76AFF0020401C80B2A842FBD3641C3B
:10335000E4B2402CEAD3204C183CA4F10A032078B4
:1033600020F010012170607820F0C0020020187059
:10337000587022F020026270A27822F00802A27037
:10338000A3F1120250738DF80100C80707D001F0B5
:10339000DBFC01F05BFE207820F0010020700E497C
:1033A0000E486423032220397438FFF7D7F80B48FE
:1033B0006423022269467438FFF7D0F806490748AB
:1033C000642303221D397438FFF7C8F8BDE8FC8177
:1033D00007000000000000003400002094090020D5
:1033E0000A4809494FF480320160092141600021F7
:1033F0008160C0E903124161017641768176C17630
:1034000001774177FDF742BB0064004000070020D0
:103410002DE9F04F85B000255F4800950195029594
:103420000395816941F010018161816901F010010A
:103430000491816941F020018161816901F02001DD
:103440000491816941F004018161816901F0040105
:103450000491816941F0080181618069DFF83C8154
:1034600000F008000490012249F211014046FEF7E5
:1034700000F9DFF82CB148F2E0090122494658462C
:10348000FEF7F7F840F6F64A012251464548FEF7A6
:10349000F0F8012204214448FEF7EBF846F2C03070
:1034A000CDE90005694640460295FDF7D9FF0124A4
:1034B00049F21000CDE900040226CDE90246694632
:1034C0004046FDF7CDFF1120CDE90040CDE9024691
:1034D00069464046FDF7C4FF042734480097CDE90C
:1034E000010469464046FDF7BBFF0F20CDE900050A
:1034F000694658460295FDF7B3FFDFF8B480102007
:10350000CDE90008694602965846FDF7A9FFCDE9C6
:103510000094CDE9024669465846FDF7A1FFCDE982
:1035200000A4CDE9024669461E48FDF799FF4FF415
:103530007340CDE9000569461A480295FDF790FFF2
:10354000CDE90074CDE9024669461748FDF788FFCA
:103550000820CDE90008694602951248FDF780FF72
:10356000002211460820FEF7F5F80820FEF7E4F8DF
:10357000002211460920FEF7EDF80920FEF7DCF8DD
:10358000002211460A20FEF7E5F80A20FEF7D4F8DB
:1035900005B0BDE8F08F00000010024000100140AF
:1035A00000080140000C01400014014000002110FF
:1035B0000000111010B586B0002412480094019448
:1035C0000294039404944FF080410594016044F602
:1035D0002061C0E9011448F6A041C0E903148461E8
:1035E000FEF7BAFB4FF48050009069460548FEF79D
:1035F000CEFC049404A903480594FEF76FFB06B0C3
:1036000010BD00002807002010B586B00024124825
:10361000009401940294039404940E49059401606B
:103620004FF6E851C0E9011441F66411C0E90314F2
:103630008461FEF791FB4FF4805000906946064884
:10364000FEF7A5FC049404A903480594FEF746FB85
:1036500006B010BD000400407007002010B586B011
:1036600000241248009401940294039404940E4997
:10367000059401604FF6E851C0E9011441F6641168
:10368000C0E903148461FEF767FB4FF4805000909B
:1036900069460648FEF77BFC049404A90348059498
:1036A000FEF71CFB06B010BD00080040B807002064
:1036B00010B586B00024124800940194029403943B
:1036C00004940E49059401604FF6E851C0E90114D5
:1036D00041F66411C0E903148461FEF73DFB4FF429
:1036E0008050009069460648FEF751FC049404A9F6
:1036F00003480594FEF7F2FA06B010BD000C004036
:103700000008002010B586B00024124800940194EF
:103710000294039404940E49059401604FF6FF71DE
:10372000C0E90114C0E9031444618461FEF714FB8D
:103730004FF48050009069460648FEF728FC049438
:1037400004A904480594FEF7C9FA06B010BD0000AC
:1037500000340140D80800200848074901604FF4B0
:10376000E1314160002181600C22C160C0E9041296
:103770008161C161FEF77EBE003801402009002052
:10378000FEE77047704700002DE9F0475DA186B065
:10379000D1E900015D4CCDE90301208A00255C4E92
:1037A00000287DD004F11C010878820779D520F02B
:1037B0000200087035605748FEF7D1FBDFF854A1CE
:1037C0006FF00109DAF80010C1F81090A1790AF53C
:1037D000EA77002004F1240C07EBC1021CF800304A
:1037E0001354401CC0B20828F8D3491CA17135609D
:1037F0004848FEF76BFB2179082203A84031FCF70B
:103800000BFDA079602859D1B04635604148FEF7DC
:10381000A6FBDAF80010C1F8109020793B498DF82A
:1038200000006423032214313B48FEF797FE642313
:10383000012269463848FEF791FE002607EBC601D3
:10384000642308223448FEF789FE761CF6B2602E07
:10385000F4D32E496423032217312F48FEF77EFE4E
:10386000207900F085FA2071402827D22BA164230B
:103870000968019125498DF8050003221431264875
:10388000FEF76CFE6423022201A92348FEF766FEC0
:103890001E496423032217311F48FEF75FFE01E033
:1038A0000FE00BE0C8F800501A48FEF70FFBA571B7
:1038B0002179082203A84031FCF7AEFC06B0BDE830
:1038C000F08716A011490068009020798DF801005A
:1038D0006423032214311048FEF740FE64230222C1
:1038E00069460D48FEF73AFE084964230322173162
:1038F0000948FEF733FE35600648FEF7E7FA012077
:103900002082D4E709000000000000000000002031
:10391000240C004000080020200900200D000000B9
:103920001CB527A16423D1E90001CDE900010322E0
:1039300025492648FEF712FE6423022269462348E1
:10394000FEF70CFE204964230322C91C1F48FEF722
:1039500005FE01208DF80100642303221A491B484B
:10396000FEF7FCFD6423022269461848FEF7F6FDC7
:10397000154964230322C91C1448FEF7EFFD1249C0
:103980000020891E01F10A0408704870217821F096
:1039900010012170627822F0E0026270A27822F0B9
:1039A0000802A270A4F11C025073C80707D001F0EE
:1039B000CBF901F04BFB207820F0010020701CBDFA
:1039C0000E0000000000000014000020200900206C
:1039D0007CB535A16423D1E90001CDE900010322C2
:1039E00033493448FEF7BAFD642302226946314860
:1039F000FEF7B4FD2E4964230322C91C2D48FEF7AF
:103A0000ADFD2D48FEF7ABFA2B496FF001000968B8
:103A10000861274E002420364FF6E855305D112806
:103A20000AD1082204F140016846FCF7F5FB0020AA
:103A3000401C80B2A842FBD3641CE4B2402CEDD3FE
:103A40001B4C0834A4F10A02207820F010012170E8
:103A5000002010705070A378627823F00803A370E0
:103A6000A4F11C03587322F0E0006070C80707D06F
:103A700001F06AF901F0EAFA207820F001002070E4
:103A8000642303220A490B48FEF768FD64230222DF
:103A900069460848FEF762FD054964230322C91CF4
:103AA0000448FEF75BFD7CBD040000000000000040
:103AB00014000020200900202807002070B51C4DAC
:103AC0004FF400712846FDF7C7FDE4B260F300042F
:103AD000A9152846FDF7C0FD60F341048021284662
:103AE000FDF7BAFD60F3820440212846FDF7B4FDDE
:103AF000104D60F3C3044FF400412846FDF7ACFDC0
:103B000060F304144FF480412846FDF7A5FD60F3EF
:103B1000451469142846FDF79FFD60F38614A91427
:103B20002846FDF799FD60F3C714204670BD0000DC
:103B300000100140000C01407FB513A3164D0FCBC0
:103B40008DE80F004FF480412846FDF785FDE4B273
:103B500060F3000469142846FDF77EFD69150F4DDA
:103B600060F341042846FDF777FD60F38204A91550
:103B70002846FDF771FD60F3C30424F0F0001DF842
:103B8000000004B070BD00000100030D0708090F1C
:103B9000040506100102030E00100140000C014054
:103BA0007FB512A3154D0FCB8DE80F0001212846DC
:103BB000FDF752FDE4B260F3000402212846FDF750
:103BC0004BFD60F3410404212846FDF745FD60F3F9
:103BD000820408212846FDF73FFD60F3C30424F06A
:103BE000F0001DF8000004B070BD00000100030DDE
:103BF0000708090F040506100102030E0008014022
:103C00002DE9FE4F53A0544C00680090208A534F7A
:103C10004FF00108002558B304F11C0630788107E5
:103C200024D520F0020030703D6004F124000078BB
:103C300001281BD1208A401C2082208ADFF8209195
:103C40006FF0010A022821D0208A62284BD23D6001
:103C50004846FEF73BF9218A09F5EA7000EBC100FE
:103C60000822217910384031FCF7D6FABDE8FE8FE2
:103C70003CA1D1E90001CDE901018DF80080207956
:103C80008DF80100208A401C208247E03448FEF76E
:103C900066F9D9F80010C1F810A020798DF801005C
:103CA0006573A573E573B07840F00800B0704FF00D
:103CB000804045622A48D838FEF708F9264964232F
:103CC000032214312948FEF749FC64230222694685
:103CD0002648FEF743FC204964230322173123487A
:103CE000FEF73CFCC2E7208A6228BFD11C48FEF7E1
:103CF00036F9D9F80010C1F810A0207900F038F892
:103D000020714028B2D217A2D2E90012CDE90112E7
:103D10008DF800808DF80100A4F810800E4964230E
:103D2000032214311148FEF719FC6423022269466C
:103D30000E48FEF713FC08496423032217310B4891
:103D4000FEF70CFC3D600648FEF7C0F8082221791A
:103D500001A888E70100000000000020240C0040BA
:103D600000080020010000000000000020090020E1
:103D70002DE9F84F401C564EC4B2DFF850814FF089
:103D800000096FF0010B4FF0010A06F10A05402C03
:103D900049D005F11800005D112841D04DA0002741
:103DA0000068009070788DF8000049498DF8014056
:103DB00064230322891C48487F1CFEF7CFFB642341
:103DC000022269464448FEF7C9FB414964230322A5
:103DD000491D4148FEF7C2FBFF208DF800003C4919
:103DE0008DF8014064230322891C3B48FEF7B6FB93
:103DF0006423022269463848FEF7B0FB3449642345
:103E00000322491D3448FEF7A9FB641CE4B2402C90
:103E100033D02F482230005D112801D0642FC1D348
:103E20002046BDE8F88F2948FEF799F82748D83092
:103E3000FEF795F8D8F80010C1F810B02349D83132
:103E40000968C1F810B02249123981F805A06878D4
:103E5000A1F8109020F0200348462A7823F0C003F0
:103E600022F010022A7024E000F06EFF01F0EEF85C
:103E7000287820F001002870D2E71448FEF76FF888
:103E80001248D830FEF76BF8D8F80010C1F810B01F
:103E90000E49D8310968C1F810B00D49123981F8BE
:103EA00005A068782A7820F0E00322F010022A703A
:103EB00048463070707023F020036B704873A87808
:103EC00020F00800A870D007CED1A9E7280700206D
:103ED00012000020FF000000200900207CB532A164
:103EE0006423D1E90001CDE90001032230493148C2
:103EF000FEF734FB6423022269462E48FEF72EFBB0
:103F00002B4964230322C91C2A48FEF727FB284EAD
:103F1000002420364FF6E855305D11280AD10822DA
:103F200004F140016846FCF777F90020401C80B29C
:103F3000A842FBD3641CE4B2402CEDD31C4C0834E3
:103F4000A4F10A03207820F010022270607820F09B
:103F5000C00100201870587021F020016170A17814
:103F600021F00801A170A3F112014873D00707D016
:103F700000F0EAFE01F06AF8207820F001002070DD
:103F8000642303220A490B48FEF7E8FA642302225D
:103F900069460848FEF7E2FA054964230322C91C72
:103FA0000448FEF7DBFA7CBD0200000000000000C0
:103FB00014000020200900207CB531A16423D1E940
:103FC0000001CDE9000103222F493048FEF7C6FA6F
:103FD0006423022269462D48FEF7C0FA2A49642369
:103FE0000322C91C2948FEF7B9FA274E00242036BF
:103FF0004FF6E855305D11280AD1082204F140013E
:104000006846FCF709F90020401C80B2A842FBD3A7
:10401000641CE4B2402CEDD31B4C0834A4F10A021A
:10402000207820F01001217000201070507062780C
:1040300022F0E0026270A27822F00802A270A4F1DD
:104040001C025073C80707D000F07EFE00F0FEFF90
:10405000207820F001002070642303220A490B48D5
:10406000FEF77CFA6423022269460848FEF776FAD6
:10407000054964230322C91C0448FEF76FFA7CBD7E
:1040800003000000000000001400002020090020B0
:104090007047FDF7F9BA30B58FB028216846FCF7B4
:1040A0006AF814210AA8FCF766F801210804CDE992
:1040B00000100024029402250491CDE907504FF42A
:1040C000E01009906846FDF763FC0F20CDE90A0572
:1040D0006802CDE90C4002210AA80E94FDF76CFBA2
:1040E0000FB030BD704700000148FDF7BCBF0000B5
:1040F000280700200148FDF7B6BF00007007002028
:104100000148FDF7B0BF0000B80700200148FDF7E7
:10411000AABF0000000800200148FDF7A4BF00006E
:10412000480800200148FDF79EBF000090080020CD
:10413000F0B502681C4B1D4D1D4E1E4F1E4C4FF01E
:10414000804C984209D0A04207D0604505D0A842D3
:1041500003D0B04201D0B84204D122F0700E4A68B8
:1041600042EA0E02984209D0A04207D0604505D02D
:10417000A84203D0B04201D0B84203D122F4407526
:10418000CA682A434D6922F080022A4302608A6885
:10419000C2620A688262984201D0A04201D10969D4
:1041A000016301214161F0BD002C01400004004089
:1041B00000080040000C00400034014010B5846845
:1041C00042EA032224F47F440A432243826010BD62
:1041D000826822F070020A4342F007018160704752
:1041E00010B5036A046A24F001040462846924F0AF
:1041F000F00444EA021423F00A020A4384610262D2
:1042000010BD10B5036A23F0100303628369046ACA
:1042100023F4704343EA023224F0A00343EA01117D
:104220008261016210BD10B5406A0021C185C18460
:10423000FEF718F810BD0168CA6822F49072CA60CF
:1042400001684A6922F001024A61016B012904D127
:104250000168CA6822F01002CA60202180F83E106E
:1042600000210163704708B590F83E10222901D063
:10427000022008BD82684FF480539A4201D101693F
:1042800021B1816A9A421BD04AB10AE00268816A70
:104290005268C2F308020A80816A891C08E0026938
:1042A00072B10268526802F07F020A70816A491C8A
:1042B0008162C18D491E0904090CC18503D019E032
:1042C00002685268F1E70168CA6822F02002CA60F9
:1042D0000168CA6822F48072CA6001684A6922F0E3
:1042E00001024A61202180F83E10016B012903D0B0
:1042F000FEF732F9002008BD002101630168CA6899
:1043000022F01002CA6001680A68D20602D50A6863
:1043100049680091818DFDF7A4FFEBE770B5044675
:1043200000680169E26821F440511143016121698B
:10433000A0680843616908432168CA6841F20C63B8
:104340009A430243CA6020684169A26921F440711E
:10435000114341611E492068884202D1FDF7D2FA1B
:1043600001E0FDF7BFFA00EBC00101EB001260684D
:1043700064218000B2FBF0F3B3FBF1F36FF0180699
:104380007343B2FBF0F5B2FBF0F605EB8305322385
:1043900003EB0515B5FBF1F5B6FBF1F605F0F005FD
:1043A00005EB0615B2FBF0F6B2FBF0F0B0FBF1F056
:1043B0006FF01802504306EB800003EB0010B0FBD7
:1043C000F1F0216800F00F002844886070BD000003
:1043D000003801402DE9F041984617460E46044644
:1043E000069D1DE0681C1BD02DB1FDF747F9A0EB21
:1043F0000800A84214D92068C16821F4D071C160B6
:104400002068416921F001014161202084F83D00CC
:1044100084F83E00002084F83C000320BDE8F081D1
:104420002068006836EA000004D00020B842D9D0E5
:104430000020F3E70120F9E72DE9F84FF64D286851
:104440004FF080490024C9F82440F449DFF8D0A394
:1044500088789AF80180C30718D0F2A06423006816
:1044600000908DF801800322EF49F048FEF776F8BE
:10447000642302226946ED48FEF770F864230322A4
:10448000EB49EA48FEF76AF8BDE8F88FE349DFF840
:10449000A4B3EA4E91F801E0E7495FEA8E634FF07A
:1044A00001070A787ED4002A14D1DFF8948398F8A3
:1044B000000010B1012876D10DE02868E149C0B2B2
:1044C0008AF8000009788842F5D188F80070DE4843
:1044D000FDF7FCFC5DE1DC48FDF72EFD2868DB49BB
:1044E000C0B28AF80100D6460C60CC4DA97821F004
:1044F000080C4FF0804185F802C04C62DFF8509301
:10450000A9F80040C24688F80040DFF82C83D34E5B
:104510000B2888F80070297821F08002697822F051
:10452000080221F01F03CB4942F010020F7043F044
:10453000C001C94B69702A701C70C04B1C7034706C
:104540000ED07346142877D2DFE800F0F00D5356F2
:10455000595C0C600C0CEFF0777AE3E6F0F0E9ECD4
:10456000FBF76CFE15E1774602F070FC9BF800004B
:1045700011283CD0BAA064230068009078788DF8A8
:1045800000008DF801400322A749A848FDF7E6FF87
:10459000642302226946A548FDF7E0FF6423032255
:1045A000A34901E0D1E0CDE0A048FDF7D7FFFF200F
:1045B0008DF800008DF80140642303229A499B483E
:1045C000FDF7CCFF6423022269469848FDF7C6FF39
:1045D0006423032296499548FDF7C0FF3078FFF722
:1045E000C7FB307040286FD2FFF70AFBD1E0347070
:1045F000FAE7FFF773FCCCE0FFF7DEFCC9E0FFF75A
:10460000E7F9C6E0BDE8F84F02F020BC02F01EFC5E
:10461000A87840F00800A870884888F80040047026
:104620004FF0804044628848FDF750FC9BF8000042
:10463000112800D13470ACE078E0FBF7E5FEA8E08B
:10464000774602F003FC9BF80000112839D084A0C3
:1046500064230068009078788DF800008DF80140A0
:10466000032271497148FDF779FF642302226946EC
:104670006E48FDF773FF642303226D496B48FDF715
:104680006DFFFF208DF800008DF8014064230322A8
:1046900065496648FDF762FF642302226946634864
:1046A000FDF75CFF6423032261496048FDF756FF74
:1046B0003078FFF75DFB3070402805D2FFF764F8D3
:1046C00067E03470FAE7FFE78AF800406548FDF7D5
:1046D00033FC5D48FDF730FC6878A9F80040297884
:1046E00020F0E00021F0100129703C707C706870AF
:1046F000A87820F00800A87088F80040C80748D0C3
:1047000000F022FB00F0A2FC287820F001002870C5
:104710003FE0FFF705F93CE002F098FB39E000F0DC
:1047200031FA36E000F0C6F933E072E01C708EF822
:10473000014022F01000287021F0E00068702CF099
:104740000800A87088F8004023E0DFF8D0A0000738
:104750001FD55046B8F1010F807820F00803374884
:10476000007800F1010C0CF0FF0C17D0B8F1070F26
:104770003AD0B8F10A0F4CD0B8F10F0F79D09AF8AF
:10478000001021F010018AF800102EF020018AF8A4
:104790000110BDE8F84F2548FDF766BD88462E4953
:1047A000097842B92A68304D05EBC1052A5486F8CC
:1047B00000C0C9F8244030780828EAD12648491CAE
:1047C000C9B2017034706029E3D188F800708AF8AA
:1047D00002301D48FDF7B0FB20480822017822482E
:1047E0004031FBF719FDD4E722B92A681F4D2A543E
:1047F00086F800C030784028CBD10F708AF802309C
:1048000034701148FDF798FBC9F82440FEF782FD8B
:10481000BFE700F071FABCE7043801401C0000203B
:1048200012000020FE0000001400002020090020DB
:1048300017000020340000200D0000200E00002092
:10484000740000200C00002028070020240C0040E9
:1048500010000020050000200F00002004000020B0
:10486000FF00000000080020D40900209409002067
:10487000FFE722B92A680BF8002086F800C03078DC
:10488000402886D10F708AF8023034700548FDF751
:1048900053FBC9F82440044804600448078000F032
:1048A000F1F976E728070020240C004010000020D2
:1048B0000148FBF7EDBF000000070020FEE7000005
:1048C0000FB4084B10B504A902AA039800F02CF805
:1048D000044602A9002000F0D1F8204610BC5DF883
:1048E00014FB00007D4A00080907090E002804DBBC
:1048F00000F1E02080F80014704700F00F0000F194
:10490000E02080F8141D704702E008C8121F08C19B
:10491000002AFAD170477047002001E001C1121F40
:10492000002AFBD1704700002DE9FF4F89B09B465C
:104930000446002506E025280BD05A460B999047DF
:10494000641C6D1C20780028F5D10DB02846BDE808
:10495000F08F0027B8460122474900E0074314F8CA
:10496000013F203B02FA03F00842F7D120782E28BD
:1049700019D114F8010F47F004072A280ED06FF060
:104980002F022078A0F1300109290CD808EB88010A
:1049900002EB410100EB0108641CF2E70A98641C79
:1049A00050F8048B0A9020780028CED0642808D0D4
:1049B000692806D075281ED05A460B9990476D1C61
:1049C00058E00A994FF00A0901C90A91002802DA51
:1049D00040422D2102E0390504D52B218DF820100D
:1049E000012103E0F90704D02021F7E78A4608AE49
:1049F0000DE00021FAE70A994FF00A0901C90A916E
:104A0000F7E74946FBF7C2FB303106F8011D0028E5
:104A1000F7D1ADEB060000F12009780701D44FF083
:104A20000108C84502DDA8EB090000E0002080462F
:104A3000002706E008A85A46C05D0B9990476D1CF8
:104A40007F1C5745F6DB04E030205A460B9990470F
:104A50006D1CB8F10001A8F10108F5DC05E016F8BD
:104A6000010B5A460B9990476D1CB9F10001A9F151
:104A70000109F4DC641C65E7092801000A68531C7D
:104A80000B601070704710B500214FF6E85341F6E7
:104A900058340BE00022521C92B29A42FBD30022FF
:104AA000521C92B2A242FBD3491C89B28142F1D37B
:104AB00010BD00007CB52FA16423D1E90001CDE930
:104AC000000103222D492E48FDF748FD64230222F0
:104AD00069462B48FDF742FD284964230322C91C7F
:104AE0002748FDF73BFD00244FF6E855082204F166
:104AF00040016846FBF790FB0020401C80B2A842B2
:104B0000FBD3641CE4B2402CF0D31C4C0834A4F159
:104B10000A03207820F010002070607820F0C00296
:104B2000A07822F0200220F01001002018705870A8
:104B3000627021F00801A170A3F11201487300F026
:104B400003F900F083FA2078642320F0010020703C
:104B500003220A490A48FDF701FD6423022269463F
:104B60000748FDF7FBFC64230322611F0448FDF79F
:104B7000F5FC7CBD130000000000000014000020C4
:104B8000200900207CB537A16423D1E90001CDE9DB
:104B90000001032235493648FDF7E0FC6423022278
:104BA00069463348FDF7DAFC304964230322C91C07
:104BB0002F48FDF7D3FC2D4C4FF6E856083400255E
:104BC000607840F0C0006070A07840F01000A070E5
:104BD000082205F140016846FBF71EFB0020401C3F
:104BE00080B2B042FBD36D1CEDB2402DF0D32078E3
:104BF0001E4920F010002070891E002008704870A7
:104C0000617821F020016170A17821F00801A17084
:104C100016491439487300F087F80221032000F088
:104C2000F3F814A000F0F2F900F001FA02210320D9
:104C300000F068FA0FA000F065FB642303220B4923
:104C40000B48FDF78BFC6423022269460848FDF7F8
:104C500085FC064964230322C91C0548FDF77EFC38
:104C60007CBD0000120000000000000014000020C5
:104C70002009002047726164696E67204D6F64658A
:104C80000000000038B5194A108A00282DD002F122
:104C9000120000210170417011820A3014A443787F
:104CA00023F02003437024680094047823F0C003A9
:104CB00024F010040470437051738178642321F050
:104CC00008018170A0F1080103220A48FDF746FCA3
:104CD0006423022269460748FDF740FC0349642328
:104CE000032217310348FDF739FC38BD00000020CE
:104CF0000F000000200900200A48002101704170C7
:104D00000A30027822F010020270427822F0E002AB
:104D10004270A0F11C025173817821F0080181706A
:104D2000704700001200002010B5002042F2107100
:104D3000401C8842FCD3012001F034FFBDE8104044
:104D4000022001F02FBF000010B51E4C1E49A078B4
:104D500020F0A000A0700120487200F06DF8FFF76D
:104D6000E3FF0021084600F04FF818A000F04EF9CC
:104D70000121002000F048F816A000F047F90221B8
:104D8000002000F041F818A000F040F903210020B5
:104D900000F03AF818A000F039F92078A4F11C01CD
:104DA00020F080002070607820F003006070002008
:104DB00008701448FDF7D3F812496FF00100096834
:104DC000086110BD1C0000206409002043686F6F5B
:104DD00073650000315F43656C6C20506172616DDA
:104DE0006574657200000000325F50726F63657316
:104DF0007320537461746500335F50726F63657321
:104E00007300000048080020002242F21073521C78
:104E10009A42FCD349B1012909D0022909D00329BA
:104E200009D1D430C0B201F0BDBE8030FAE7C03045
:104E3000F8E79430F6E7704710B5002042F21071A1
:104E4000401C8842FCD3032001F0ACFE282001F076
:104E5000A9FE062001F0A6FEBDE810400C2001F0DE
:104E6000A1BE00000B4910B501204872FFF7E4FF16
:104E7000FFF75AFF01210420FFF7C6FF06A000F04C
:104E8000C5F8084900204862BDE810400648FDF713
:104E90001DB8000064090020506C656173652057DF
:104EA0006169740000100040480800202DE9F05F9F
:104EB00000F0100500F0200400F0400900F0800A26
:104EC00000F0010B00F0020800F0040700F00806F3
:104ED000002042F21071401C8842FCD301220421C0
:104EE0004648FCF7C6FB00224FF480514448FCF7CB
:104EF000C0FB0122D1034348FCF7BBFB0022102179
:104F00004148FCF7B6FB002220213F48FCF7B1FBEB
:104F1000002240213C48FCF7ACFB002280213A48AB
:104F2000FCF7A7FB102D04D1012210213648FCF715
:104F3000A0FB202C04D1012220213348FCF799FB4F
:104F4000B9F1400F04D1012240212F48FCF791FB19
:104F5000BAF1800F04D1012280212B48FCF789FB94
:104F6000284D4FF40044002221462846FCF781FBDF
:104F7000012221462846FCF77CFBDFF88C900022BA
:104F800010214846FCF775FB002220214846FCF71B
:104F900070FB002240214846FCF76BFB0022802179
:104FA0004846FCF766FBBBF1000F04D0012210213C
:104FB0004846FCF75EFBB8F1020F04D10122202124
:104FC0004846FCF756FB042F04D1012240214846F5
:104FD000FCF74FFB082E04D1012280214846FCF744
:104FE00048FB002221462846FCF743FB2146284681
:104FF000BDE8F05F0022FCF73CBB0000001401405C
:105000000010014000080140000C014010B50446AA
:10501000002042F21071401C8842FCD303E000BF24
:10502000FFF744FF641C20780028F9D110BD10B5AB
:10503000002042F21071401C8842FCD3012001F094
:105040005BFEBDE81040022001F056BE70B51D4960
:105050001D4C012008700025E570A07820F040006C
:10506000A07000F067F8FFF7E2FF0021084600F0AB
:1050700049F816A000F046F90121002000F042F89E
:1050800014A000F03FF90221002000F03BF816A028
:1050900000F038F90321002000F034F816A000F0E9
:1050A00031F9607820F01C006070A4F11C0045709C
:1050B0000448D438FCF753FF0249A81ED4390968C4
:1050C000086170BD640900201C00002043686F6FF8
:1050D00073650000315F43656C6C20506172616DD7
:1050E0006574657200000000325F50726F63657313
:1050F0007320537461746500335F50726F6365731E
:1051000073000000002242F21073521C9A42FCD33A
:1051100049B1012909D0022909D0032909D1D43084
:10512000C0B201F0E9BD8030FAE7C030F8E7943052
:10513000F6E7704710B5002042F21071401C88421B
:10514000FCD3032001F0D8FD282001F0D5FD062076
:1051500001F0D2FDBDE810400C2001F0CDBD0000F3
:105160000B4910B501200870FFF7E4FFFFF75FFF60
:1051700001210420FFF7C6FF06A000F0C3F809498B
:10518000002048620248BDE81040D438FCF79EBEBB
:1051900064090020506C6561736520576169742053
:1051A00000000000001000402DE9F05F00F0100644
:1051B00000F0200800F0400A00F0800900F0010B28
:1051C00000F0020500F0040400F00807002042F29D
:1051D0001071401C8842FCD3012220214748FCF773
:1051E00048FA002240214548FCF743FA0122802179
:1051F0004248FCF73EFA002202214148FCF739FA06
:10520000002204213E48FCF734FA00224FF480616A
:105210003B48FCF72EFA00224FF400613848FCF7B7
:1052200028FA102E04D1012202213548FCF721FA78
:10523000B8F1200F04D1012204213148FCF719FAFA
:10524000BAF1400F04D1012291022D48FCF711FA66
:10525000B9F1800F04D10122D1022948FCF709FAE3
:10526000264E002280213046FCF703FA01228021DD
:105270003046FCF7FEF9DFF8888000220221404624
:10528000FCF7F7F9002204214046FCF7F2F94FF44D
:105290008069002249464046FCF7EBF94FF4006A6A
:1052A000002251464046FCF7E4F9BBF1000F04D060
:1052B000012202214046FCF7DCF9022D04D1012233
:1052C00004214046FCF7D5F9042C04D101224946BB
:1052D0004046FCF7CEF9082F04D101225146404642
:1052E000FCF7C7F9002280213046FCF7C2F93046AE
:1052F000BDE8F05F00228021FCF7BBB90008014047
:10530000000C014010B50446002042F21071401C10
:105310008842FCD303E000BFFFF746FF641C2078FF
:105320000028F9D110BD000086B0FCF7B5F9FEF7F2
:10533000B2FEFEF76DF8FEF753F8FEF70DFA002502
:10534000FC4EFB4800954FF6E854019586E8310085
:105350008020F460B0613046FCF7FEFC00956946A1
:1053600030460195FCF7BAFCF34806F14807009572
:10537000019587E831008020FC60B8613846FCF771
:10538000EBFC0095694638460195FCF7A7FCEC4913
:10539000EA4808600846FBF7DEFDFEF75FF9FEF716
:1053A00087F9FEF7AFF9FEF72FF9FEF703F90122AF
:1053B000D103E448FCF75DF901221021E148FCF734
:1053C00058F9FEF7C9F9FEF703FBFEF719FCFEF7E3
:1053D00085FDFEF7F1FDFBF767F8D94C2C3C2582E3
:1053E000FDF798FFFFF788FCFAF728FFFBF70CF8AA
:1053F000FEF7CAF9FEF794FAFFF744FC4FF47A700F
:10540000FBF78AFE4FF0010A84F800A084F801A09F
:10541000002000F09DFD002001F0E4F9002000F0E4
:1054200029FB002001F002F8A6F59070FCF74EFD74
:10543000A6F14800FCF74AFD3846FCF747FD304628
:10544000FCF744FDA6F19000FCF740FDA6F5907036
:10545000FCF73CFD258225706570A570E570FEF7B0
:105460002DFB04F11C082073C8F80050FAF7BEFEAB
:1054700040F21341A6F5A470FBF7A8F8A6F5A470B6
:10548000FBF736FD404606F58E7B0560001D414664
:10549000056058468BF8095005704046407820F06A
:1054A00029004870A6F1D800FCF759FDA6F190003C
:1054B000FCF755FDA6F14800FCF751FD3046FCF71E
:1054C0004EFD3846FCF74BFDA6F59070FCF747FD06
:1054D000A6F590706FF001090068C0F81090A6F171
:1054E000D8010968C1F81090A6F190010968C1F8C7
:1054F0001090A6F148000068C0F810903168A81E0E
:1055000008613968086190480560904805609048D6
:1055100005608748456280044562874824300560FD
:10552000FEF71AF906F1D8000068C16841F02001C1
:10553000C160A5730122E573D1038248FCF799F895
:10554000012210217F48FCF794F8FFF775FCFFF764
:10555000EBFB01210520FFF757FC7EA0FFF756FD6E
:10556000FFF7E8FDFFF763FD01210520FFF7CAFD06
:1055700078A0FFF7C7FE6420FFF785FAFFF7DAFD92
:10558000FFF755FD00210846FFF7BCFDFFF75EFD64
:10559000FFF752FCFFF7C8FB00210846FFF734FC79
:1055A000FFF7D2FB4FF4FA70FBF7B6FD0122D103EF
:1055B0006448FCF75EF8012210216248FCF759F8B4
:1055C000FFF73AFCFFF7B0FB00210846FFF71CFC91
:1055D000FFF7BAFBFFF7AEFDFFF729FD00210846F4
:1055E000FFF790FDFFF732FD04F12000007840F056
:1055F000210104F12000054601702878C107FCD084
:1056000020F001012970880628D598F8022021F0A1
:105610002001297022F0A00398F8012098F80010CA
:1056200022F023068BF809A00022627323F00903FD
:1056300021F0800188F8023088F8001026F043013C
:1056400088F801102270FFF77FFBFFF7FFFC394855
:10565000FCF785FC37490968C1F810902A78500694
:1056600022D5002188F8031098F8023022F0400279
:105670002A7098F801208BF800A0617323F0490389
:1056800088F8023022F0BC0288F801206170FFF730
:105690005BFBFFF7DBFC27484830FCF760FC254943
:1056A00048310968C1F810902878C1063FD520F02C
:1056B0001000287029A022490068029020798DF8F6
:1056C00009001C48642303221839D830FCF746FF30
:1056D00018486423022202A9D830FCF73FFF18497A
:1056E0001448642303221539D830FCF737FF98F8A3
:1056F000000046460007207970D4FEF739FB207180
:1057000000272782402812D20D481A3841781029E4
:1057100077D2DFE801F0760825282B2EB160B1B1F1
:1057200064676A6D73B10A480760FEF769FAA3E01F
:1057300000100040480800200014004000300240E3
:105740002C000020001001402404004024080040E8
:10575000240C004057454C434F4D4500FF000000CE
:10576000FEF7BCFB88E0FEF727FC85E0FEF730F98A
:1057700082E0B34E3760B348FCF7F1FBB1490968EA
:10578000C1F81090B0A1E771D1E90001CDE90001A5
:105790002079402870D2ACA16423096803918DF868
:1057A0000D000322AA49AB48FCF7D8FE642302226D
:1057B00003A9A848FCF7D2FEA54964230322C91C0B
:1057C000A448FCF7CBFE37609E48FCF77FFB08221D
:1057D000217968464DE0FDF79DFD4DE021E0FFF7A2
:1057E0008BFA49E0FAF72AFD46E0FAF70DFE43E0AE
:1057F00093480760FDF7C8FF3EE002E0FEF790F82F
:105800003AE007704770307820F010003070707800
:1058100020F0E0007070B07820F00800B07067737E
:105820002AE0401CC0B2207140287DD08AA16423A8
:105830000968009189A1D1E90021CDE903218DF802
:105840000100032282498348FCF788FE6423022278
:1058500069468048FCF782FE7D4964230322C91C07
:105860007C48FCF77BFE7648002101602179082204
:1058700003A84031FAF7D0FC2878010735D520F08D
:105880000800287098F80200464620F0800088F84A
:10589000020098F8010020F0410088F801008BF820
:1058A00009A0FFF741FA00210846FFF7ADFA70782A
:1058B00020F02000707000206073B07820F00900A4
:1058C000B07068A0FFF7A2FB5E484838FCF747FBC2
:1058D0005C4948390968C1F810904FF47A70FBF7B9
:1058E0001BFCFFF731FAFFF7B1FB2878410733D5EE
:1058F00020F004002870002788F8037098F8010051
:10590000464620F0880088F801008BF800A0FFF7D9
:105910008EFB00210846FFF7F5FB707820F0200091
:1059200070706773B07800E057E020F00900B07045
:105930004CA0FFF7E7FC43489038FCF710FB4149C7
:1059400090390968C1F810904FF47A70FBF7E4FBC6
:10595000FFF77CFBFFF7F8F9287881077FF54DAE5C
:1059600020F0020028703748FCF7F9FA3548D8389B
:10597000FCF7F5FA33490968C1F810903149D83974
:105980000968C1F8109098F80100464620F02001FF
:105990000020208221F0C00398F800202C4922F03A
:1059A0001002891E88F800200870487023F020013A
:1059B00088F8011098F8021021F0080188F8021008
:1059C0006073D0073FF419AEFFF7BEF9FFF73EFB57
:1059D000307820F0010030700FE61A48D838FCF714
:1059E000BEFA1848FCF7BBFA16490968C1F81090CE
:1059F0001449D8390968C1F8109084F805A03178A5
:105A0000707821F01003124920F0E002891E3370F3
:105A100000200870487022F020017170B17821F0E8
:105A20000801B1706073D8073FF481AEFFF78CF9BD
:105A3000FFF70CFB307820F0010030701CE700000D
:105A4000240C0040000800200500000000000000B9
:105A500014000020200900200B0000000B000000B3
:105A600000000000436F6E6E656374696F6E2046C0
:105A700061696C002DE9F047FCA188B00546D1E9C9
:105A80000001FC4CCDE9050104F11C062278FA4B1B
:105A900030784FF0010A00219AB1F84D87076FD591
:105AA00020F00200307089461960204600F1240879
:105AB000417A8078012A23D0022A31D0032A5FD18B
:105AC00044E0657240F010003070EA4A092012325A
:105AD000507084F800A0A1701960E948FCF7F6F94D
